{
    "contractName": "SimpleStorage",
    "abi": [
        {
            "inputs": [],
            "stateMutability": "payable",
            "type": "constructor"
        },
        {
            "inputs": [
                {
                    "internalType": "uint256",
                    "name": "x",
                    "type": "uint256"
                }
            ],
            "name": "set",
            "outputs": [],
            "stateMutability": "payable",
            "type": "function"
        },
        {
            "inputs": [
                {
                    "internalType": "uint256",
                    "name": "x",
                    "type": "uint256"
                }
            ],
            "name": "add",
            "outputs": [],
            "stateMutability": "payable",
            "type": "function"
        },
        {
            "inputs": [],
            "name": "get",
            "outputs": [
                {
                    "internalType": "uint256",
                    "name": "",
                    "type": "uint256"
                }
            ],
            "stateMutability": "view",
            "type": "function"
        }
    ],
    "bytecode": "0x6080604052607b60008190555061020a8061001b6000396000f3fe6080604052600436106100345760003560e01c80631003e2d21461003957806360fe47b1146100555780636d4ce63c14610071575b600080fd5b610053600480360381019061004e91906100db565b61009c565b005b61006f600480360381019061006a91906100db565b6100b3565b005b34801561007d57600080fd5b506100866100bd565b6040516100939190610113565b60405180910390f35b806000546100aa919061012e565b60008190555050565b8060008190555050565b60008054905090565b6000813590506100d5816101bd565b92915050565b6000602082840312156100ed57600080fd5b60006100fb848285016100c6565b91505092915050565b61010d81610184565b82525050565b60006020820190506101286000830184610104565b92915050565b600061013982610184565b915061014483610184565b9250827fffffffffffffffffffffffffffffffffffffffffffffffffffffffffffffffff038211156101795761017861018e565b5b828201905092915050565b6000819050919050565b7f4e487b7100000000000000000000000000000000000000000000000000000000600052601160045260246000fd5b6101c681610184565b81146101d157600080fd5b5056fea26469706673582212203bcbf43f414fa2c5d948153fb55958e9fcd2bdb20bf6eb6571444d2f89a8558664736f6c63430008030033",
    "immutableReferences": {},
    "source": "pragma solidity >=0.8.0;\n\ncontract SimpleStorage {\n  uint storedData;\n\n  constructor() payable {\n    storedData = 123;\n  }\n\n  function set(uint x) public payable {\n    storedData = x;\n  }\n\n  function add(uint x) public payable {\n    storedData = storedData + x;\n  }\n\n  function get() public view returns (uint) {\n    return storedData;\n  }\n}",
    "sourcePath": "/Users/arnaudphommasone/Documents/blockchain/projects/ethereum-demo-final/blockchain-workshop-godwoken-simple/contracts/SimpleStorage.sol",
    "compiler": {
        "name": "solc",
        "version": "0.8.3+commit.8d00100c.Linux.g++"
    },
    "schemaVersion": "3.3.4",
    "updatedAt": "2021-08-12T10:50:55.187Z",
    "devdoc": {
        "kind": "dev",
        "methods": {},
        "version": 1
    },
    "userdoc": {
        "kind": "user",
        "methods": {},
        "version": 1
    }
}